{"abi":[{"type":"constructor","inputs":[],"stateMutability":"nonpayable"},{"type":"receive","stateMutability":"payable"},{"type":"function","name":"depositOf","inputs":[{"name":"account","type":"address","internalType":"address"}],"outputs":[{"name":"","type":"uint256","internalType":"uint256"}],"stateMutability":"view"},{"type":"function","name":"deposits","inputs":[{"name":"","type":"address","internalType":"address"}],"outputs":[{"name":"","type":"uint256","internalType":"uint256"}],"stateMutability":"view"},{"type":"function","name":"lockAndSwap","inputs":[],"outputs":[],"stateMutability":"payable"},{"type":"function","name":"owner","inputs":[],"outputs":[{"name":"","type":"address","internalType":"address"}],"stateMutability":"view"},{"type":"function","name":"setOwner","inputs":[{"name":"newOwner","type":"address","internalType":"address"}],"outputs":[],"stateMutability":"nonpayable"},{"type":"function","name":"totalLocked","inputs":[],"outputs":[{"name":"","type":"uint256","internalType":"uint256"}],"stateMutability":"view"},{"type":"function","name":"withdraw","inputs":[{"name":"amount","type":"uint256","internalType":"uint256"}],"outputs":[],"stateMutability":"nonpayable"},{"type":"function","name":"withdraw","inputs":[{"name":"to","type":"address","internalType":"address payable"},{"name":"amount","type":"uint256","internalType":"uint256"}],"outputs":[],"stateMutability":"nonpayable"},{"type":"event","name":"SwapLocked","inputs":[{"name":"sender","type":"address","indexed":true,"internalType":"address"},{"name":"amount","type":"uint256","indexed":false,"internalType":"uint256"}],"anonymous":false},{"type":"event","name":"Withdraw","inputs":[{"name":"account","type":"address","indexed":true,"internalType":"address"},{"name":"amount","type":"uint256","indexed":false,"internalType":"uint256"}],"anonymous":false}],"bytecode":{"object":"0x6080604052348015600e575f5ffd5b503360025f6101000a81548173ffffffffffffffffffffffffffffffffffffffff021916908373ffffffffffffffffffffffffffffffffffffffff160217905550610fcb8061005c5f395ff3fe60806040526004361061007e575f3560e01c80638da5cb5b1161004d5780638da5cb5b146101f7578063a0d0795f14610221578063f3fef3a31461022b578063fc7e286d146102535761013d565b806313af40351461014157806323e3fbd5146101695780632e1a7d4d146101a557806356891412146101cd5761013d565b3661013d57345f5f8282546100939190610985565b925050819055503460015f3373ffffffffffffffffffffffffffffffffffffffff1673ffffffffffffffffffffffffffffffffffffffff1681526020019081526020015f205f8282546100e69190610985565b925050819055503373ffffffffffffffffffffffffffffffffffffffff167fa9812f483f7e14de9d9a0193c51099c6b2620e7d8988c6d02be13d1c5e8cc9da3460405161013391906109c7565b60405180910390a2005b5f5ffd5b34801561014c575f5ffd5b5061016760048036038101906101629190610a3e565b61028f565b005b348015610174575f5ffd5b5061018f600480360381019061018a9190610a3e565b6103cf565b60405161019c91906109c7565b60405180910390f35b3480156101b0575f5ffd5b506101cb60048036038101906101c69190610a93565b610415565b005b3480156101d8575f5ffd5b506101e161067e565b6040516101ee91906109c7565b60405180910390f35b348015610202575f5ffd5b5061020b610683565b6040516102189190610acd565b60405180910390f35b6102296106a8565b005b348015610236575f5ffd5b50610251600480360381019061024c9190610b21565b6107a4565b005b34801561025e575f5ffd5b5061027960048036038101906102749190610a3e565b61093a565b60405161028691906109c7565b60405180910390f35b60025f9054906101000a900473ffffffffffffffffffffffffffffffffffffffff1673ffffffffffffffffffffffffffffffffffffffff163373ffffffffffffffffffffffffffffffffffffffff161461031e576040517f08c379a000000000000000000000000000000000000000000000000000000000815260040161031590610bb9565b60405180910390fd5b5f73ffffffffffffffffffffffffffffffffffffffff168173ffffffffffffffffffffffffffffffffffffffff160361038c576040517f08c379a000000000000000000000000000000000000000000000000000000000815260040161038390610c21565b60405180910390fd5b8060025f6101000a81548173ffffffffffffffffffffffffffffffffffffffff021916908373ffffffffffffffffffffffffffffffffffffffff16021790555050565b5f60015f8373ffffffffffffffffffffffffffffffffffffffff1673ffffffffffffffffffffffffffffffffffffffff1681526020019081526020015f20549050919050565b5f8111610457576040517f08c379a000000000000000000000000000000000000000000000000000000000815260040161044e90610c89565b60405180910390fd5b8060015f3373ffffffffffffffffffffffffffffffffffffffff1673ffffffffffffffffffffffffffffffffffffffff1681526020019081526020015f205410156104d7576040517f08c379a00000000000000000000000000000000000000000000000000000000081526004016104ce90610d17565b60405180910390fd5b4781111561051a576040517f08c379a000000000000000000000000000000000000000000000000000000000815260040161051190610da5565b60405180910390fd5b8060015f3373ffffffffffffffffffffffffffffffffffffffff1673ffffffffffffffffffffffffffffffffffffffff1681526020019081526020015f205f8282546105669190610dc3565b92505081905550805f5f82825461057d9190610dc3565b925050819055505f3373ffffffffffffffffffffffffffffffffffffffff16826040516105a990610e23565b5f6040518083038185875af1925050503d805f81146105e3576040519150601f19603f3d011682016040523d82523d5f602084013e6105e8565b606091505b505090508061062c576040517f08c379a000000000000000000000000000000000000000000000000000000000815260040161062390610e81565b60405180910390fd5b3373ffffffffffffffffffffffffffffffffffffffff167f884edad9ce6fa2440d8a54cc123490eb96d2768479d49ff9c7366125a94243648360405161067291906109c7565b60405180910390a25050565b5f5481565b60025f9054906101000a900473ffffffffffffffffffffffffffffffffffffffff1681565b5f34116106ea576040517f08c379a00000000000000000000000000000000000000000000000000000000081526004016106e190610ee9565b60405180910390fd5b345f5f8282546106fa9190610985565b925050819055503460015f3373ffffffffffffffffffffffffffffffffffffffff1673ffffffffffffffffffffffffffffffffffffffff1681526020019081526020015f205f82825461074d9190610985565b925050819055503373ffffffffffffffffffffffffffffffffffffffff167fa9812f483f7e14de9d9a0193c51099c6b2620e7d8988c6d02be13d1c5e8cc9da3460405161079a91906109c7565b60405180910390a2565b60025f9054906101000a900473ffffffffffffffffffffffffffffffffffffffff1673ffffffffffffffffffffffffffffffffffffffff163373ffffffffffffffffffffffffffffffffffffffff1614610833576040517f08c379a000000000000000000000000000000000000000000000000000000000815260040161082a90610bb9565b60405180910390fd5b47811115610876576040517f08c379a000000000000000000000000000000000000000000000000000000000815260040161086d90610f77565b60405180910390fd5b805f5f8282546108869190610dc3565b925050819055505f8273ffffffffffffffffffffffffffffffffffffffff16826040516108b290610e23565b5f6040518083038185875af1925050503d805f81146108ec576040519150601f19603f3d011682016040523d82523d5f602084013e6108f1565b606091505b5050905080610935576040517f08c379a000000000000000000000000000000000000000000000000000000000815260040161092c90610e81565b60405180910390fd5b505050565b6001602052805f5260405f205f915090505481565b5f819050919050565b7f4e487b71000000000000000000000000000000000000000000000000000000005f52601160045260245ffd5b5f61098f8261094f565b915061099a8361094f565b92508282019050808211156109b2576109b1610958565b5b92915050565b6109c18161094f565b82525050565b5f6020820190506109da5f8301846109b8565b92915050565b5f5ffd5b5f73ffffffffffffffffffffffffffffffffffffffff82169050919050565b5f610a0d826109e4565b9050919050565b610a1d81610a03565b8114610a27575f5ffd5b50565b5f81359050610a3881610a14565b92915050565b5f60208284031215610a5357610a526109e0565b5b5f610a6084828501610a2a565b91505092915050565b610a728161094f565b8114610a7c575f5ffd5b50565b5f81359050610a8d81610a69565b92915050565b5f60208284031215610aa857610aa76109e0565b5b5f610ab584828501610a7f565b91505092915050565b610ac781610a03565b82525050565b5f602082019050610ae05f830184610abe565b92915050565b5f610af0826109e4565b9050919050565b610b0081610ae6565b8114610b0a575f5ffd5b50565b5f81359050610b1b81610af7565b92915050565b5f5f60408385031215610b3757610b366109e0565b5b5f610b4485828601610b0d565b9250506020610b5585828601610a7f565b9150509250929050565b5f82825260208201905092915050565b7f4c6f636b416e64537761703a2063616c6c6572206973206e6f74206f776e65725f82015250565b5f610ba3602083610b5f565b9150610bae82610b6f565b602082019050919050565b5f6020820190508181035f830152610bd081610b97565b9050919050565b7f4c6f636b416e64537761703a207a65726f2061646472657373000000000000005f82015250565b5f610c0b601983610b5f565b9150610c1682610bd7565b602082019050919050565b5f6020820190508181035f830152610c3881610bff565b9050919050565b7f4c6f636b416e64537761703a207a65726f20616d6f756e7400000000000000005f82015250565b5f610c73601883610b5f565b9150610c7e82610c3f565b602082019050919050565b5f6020820190508181035f830152610ca081610c67565b9050919050565b7f4c6f636b416e64537761703a20696e73756666696369656e74206465706f73695f8201527f7465642062616c616e6365000000000000000000000000000000000000000000602082015250565b5f610d01602b83610b5f565b9150610d0c82610ca7565b604082019050919050565b5f6020820190508181035f830152610d2e81610cf5565b9050919050565b7f4c6f636b416e64537761703a20696e73756666696369656e7420636f6e7472615f8201527f63742062616c616e636500000000000000000000000000000000000000000000602082015250565b5f610d8f602a83610b5f565b9150610d9a82610d35565b604082019050919050565b5f6020820190508181035f830152610dbc81610d83565b9050919050565b5f610dcd8261094f565b9150610dd88361094f565b9250828203905081811115610df057610def610958565b5b92915050565b5f81905092915050565b50565b5f610e0e5f83610df6565b9150610e1982610e00565b5f82019050919050565b5f610e2d82610e03565b9150819050919050565b7f4c6f636b416e64537761703a207472616e73666572206661696c6564000000005f82015250565b5f610e6b601c83610b5f565b9150610e7682610e37565b602082019050919050565b5f6020820190508181035f830152610e9881610e5f565b9050919050565b7f4c6f636b416e64537761703a207a65726f2076616c75650000000000000000005f82015250565b5f610ed3601783610b5f565b9150610ede82610e9f565b602082019050919050565b5f6020820190508181035f830152610f0081610ec7565b9050919050565b7f4c6f636b416e64537761703a20696e73756666696369656e742062616c616e635f8201527f6500000000000000000000000000000000000000000000000000000000000000602082015250565b5f610f61602183610b5f565b9150610f6c82610f07565b604082019050919050565b5f6020820190508181035f830152610f8e81610f55565b905091905056fea26469706673582212203cf616104a3bc2171e568e83682fd0197dfcde657a4ae6b2116daa318626ed0264736f6c634300081e0033","linkReferences":{}},"methodIdentifiers":{"depositOf(address)":"23e3fbd5","deposits(address)":"fc7e286d","lockAndSwap()":"a0d0795f","owner()":"8da5cb5b","setOwner(address)":"13af4035","totalLocked()":"56891412","withdraw(address,uint256)":"f3fef3a3","withdraw(uint256)":"2e1a7d4d"},"id":24}