{"abi":[{"type":"constructor","inputs":[],"stateMutability":"nonpayable"},{"type":"receive","stateMutability":"payable"},{"type":"function","name":"depositOf","inputs":[{"name":"account","type":"address","internalType":"address"}],"outputs":[{"name":"","type":"uint256","internalType":"uint256"}],"stateMutability":"view"},{"type":"function","name":"deposits","inputs":[{"name":"","type":"address","internalType":"address"}],"outputs":[{"name":"","type":"uint256","internalType":"uint256"}],"stateMutability":"view"},{"type":"function","name":"lockAndSwap","inputs":[],"outputs":[],"stateMutability":"payable"},{"type":"function","name":"owner","inputs":[],"outputs":[{"name":"","type":"address","internalType":"address"}],"stateMutability":"view"},{"type":"function","name":"setOwner","inputs":[{"name":"newOwner","type":"address","internalType":"address"}],"outputs":[],"stateMutability":"nonpayable"},{"type":"function","name":"totalLocked","inputs":[],"outputs":[{"name":"","type":"uint256","internalType":"uint256"}],"stateMutability":"view"},{"type":"function","name":"withdraw","inputs":[{"name":"to","type":"address","internalType":"address payable"},{"name":"amount","type":"uint256","internalType":"uint256"}],"outputs":[],"stateMutability":"nonpayable"},{"type":"event","name":"SwapLocked","inputs":[{"name":"sender","type":"address","indexed":true,"internalType":"address"},{"name":"amount","type":"uint256","indexed":false,"internalType":"uint256"}],"anonymous":false}],"bytecode":{"object":"0x6080604052348015600e575f5ffd5b503360025f6101000a81548173ffffffffffffffffffffffffffffffffffffffff021916908373ffffffffffffffffffffffffffffffffffffffff160217905550610b808061005c5f395ff3fe608060405260043610610073575f3560e01c80638da5cb5b1161004d5780638da5cb5b146101c4578063a0d0795f146101ee578063f3fef3a3146101f8578063fc7e286d1461022057610132565b806313af40351461013657806323e3fbd51461015e578063568914121461019a57610132565b3661013257345f5f82825461008891906106e9565b925050819055503460015f3373ffffffffffffffffffffffffffffffffffffffff1673ffffffffffffffffffffffffffffffffffffffff1681526020019081526020015f205f8282546100db91906106e9565b925050819055503373ffffffffffffffffffffffffffffffffffffffff167fa9812f483f7e14de9d9a0193c51099c6b2620e7d8988c6d02be13d1c5e8cc9da34604051610128919061072b565b60405180910390a2005b5f5ffd5b348015610141575f5ffd5b5061015c600480360381019061015791906107a2565b61025c565b005b348015610169575f5ffd5b50610184600480360381019061017f91906107a2565b61039c565b604051610191919061072b565b60405180910390f35b3480156101a5575f5ffd5b506101ae6103e2565b6040516101bb919061072b565b60405180910390f35b3480156101cf575f5ffd5b506101d86103e7565b6040516101e591906107dc565b60405180910390f35b6101f661040c565b005b348015610203575f5ffd5b5061021e6004803603810190610219919061085a565b610508565b005b34801561022b575f5ffd5b50610246600480360381019061024191906107a2565b61069e565b604051610253919061072b565b60405180910390f35b60025f9054906101000a900473ffffffffffffffffffffffffffffffffffffffff1673ffffffffffffffffffffffffffffffffffffffff163373ffffffffffffffffffffffffffffffffffffffff16146102eb576040517f08c379a00000000000000000000000000000000000000000000000000000000081526004016102e2906108f2565b60405180910390fd5b5f73ffffffffffffffffffffffffffffffffffffffff168173ffffffffffffffffffffffffffffffffffffffff1603610359576040517f08c379a00000000000000000000000000000000000000000000000000000000081526004016103509061095a565b60405180910390fd5b8060025f6101000a81548173ffffffffffffffffffffffffffffffffffffffff021916908373ffffffffffffffffffffffffffffffffffffffff16021790555050565b5f60015f8373ffffffffffffffffffffffffffffffffffffffff1673ffffffffffffffffffffffffffffffffffffffff1681526020019081526020015f20549050919050565b5f5481565b60025f9054906101000a900473ffffffffffffffffffffffffffffffffffffffff1681565b5f341161044e576040517f08c379a0000000000000000000000000000000000000000000000000000000008152600401610445906109c2565b60405180910390fd5b345f5f82825461045e91906106e9565b925050819055503460015f3373ffffffffffffffffffffffffffffffffffffffff1673ffffffffffffffffffffffffffffffffffffffff1681526020019081526020015f205f8282546104b191906106e9565b925050819055503373ffffffffffffffffffffffffffffffffffffffff167fa9812f483f7e14de9d9a0193c51099c6b2620e7d8988c6d02be13d1c5e8cc9da346040516104fe919061072b565b60405180910390a2565b60025f9054906101000a900473ffffffffffffffffffffffffffffffffffffffff1673ffffffffffffffffffffffffffffffffffffffff163373ffffffffffffffffffffffffffffffffffffffff1614610597576040517f08c379a000000000000000000000000000000000000000000000000000000000815260040161058e906108f2565b60405180910390fd5b478111156105da576040517f08c379a00000000000000000000000000000000000000000000000000000000081526004016105d190610a50565b60405180910390fd5b805f5f8282546105ea9190610a6e565b925050819055505f8273ffffffffffffffffffffffffffffffffffffffff168260405161061690610ace565b5f6040518083038185875af1925050503d805f8114610650576040519150601f19603f3d011682016040523d82523d5f602084013e610655565b606091505b5050905080610699576040517f08c379a000000000000000000000000000000000000000000000000000000000815260040161069090610b2c565b60405180910390fd5b505050565b6001602052805f5260405f205f915090505481565b5f819050919050565b7f4e487b71000000000000000000000000000000000000000000000000000000005f52601160045260245ffd5b5f6106f3826106b3565b91506106fe836106b3565b9250828201905080821115610716576107156106bc565b5b92915050565b610725816106b3565b82525050565b5f60208201905061073e5f83018461071c565b92915050565b5f5ffd5b5f73ffffffffffffffffffffffffffffffffffffffff82169050919050565b5f61077182610748565b9050919050565b61078181610767565b811461078b575f5ffd5b50565b5f8135905061079c81610778565b92915050565b5f602082840312156107b7576107b6610744565b5b5f6107c48482850161078e565b91505092915050565b6107d681610767565b82525050565b5f6020820190506107ef5f8301846107cd565b92915050565b5f6107ff82610748565b9050919050565b61080f816107f5565b8114610819575f5ffd5b50565b5f8135905061082a81610806565b92915050565b610839816106b3565b8114610843575f5ffd5b50565b5f8135905061085481610830565b92915050565b5f5f604083850312156108705761086f610744565b5b5f61087d8582860161081c565b925050602061088e85828601610846565b9150509250929050565b5f82825260208201905092915050565b7f4c6f636b416e64537761703a2063616c6c6572206973206e6f74206f776e65725f82015250565b5f6108dc602083610898565b91506108e7826108a8565b602082019050919050565b5f6020820190508181035f830152610909816108d0565b9050919050565b7f4c6f636b416e64537761703a207a65726f2061646472657373000000000000005f82015250565b5f610944601983610898565b915061094f82610910565b602082019050919050565b5f6020820190508181035f83015261097181610938565b9050919050565b7f4c6f636b416e64537761703a207a65726f2076616c75650000000000000000005f82015250565b5f6109ac601783610898565b91506109b782610978565b602082019050919050565b5f6020820190508181035f8301526109d9816109a0565b9050919050565b7f4c6f636b416e64537761703a20696e73756666696369656e742062616c616e635f8201527f6500000000000000000000000000000000000000000000000000000000000000602082015250565b5f610a3a602183610898565b9150610a45826109e0565b604082019050919050565b5f6020820190508181035f830152610a6781610a2e565b9050919050565b5f610a78826106b3565b9150610a83836106b3565b9250828203905081811115610a9b57610a9a6106bc565b5b92915050565b5f81905092915050565b50565b5f610ab95f83610aa1565b9150610ac482610aab565b5f82019050919050565b5f610ad882610aae565b9150819050919050565b7f4c6f636b416e64537761703a207472616e73666572206661696c6564000000005f82015250565b5f610b16601c83610898565b9150610b2182610ae2565b602082019050919050565b5f6020820190508181035f830152610b4381610b0a565b905091905056fea264697066735822122063adfa9cbeb9957c8fe519c7ab0546c922340d50895c24210116f35c9376cf6964736f6c634300081e0033","linkReferences":{}},"methodIdentifiers":{"depositOf(address)":"23e3fbd5","deposits(address)":"fc7e286d","lockAndSwap()":"a0d0795f","owner()":"8da5cb5b","setOwner(address)":"13af4035","totalLocked()":"56891412","withdraw(address,uint256)":"f3fef3a3"},"id":0}